:020000040800F2
:1000000000800120550B0008A50B0008A50B000877
:10001000A50B0008A50B0008A50B000800000000B8
:10002000000000000000000000000000A50B000818
:10003000A50B000800000000A50B0008A50B000898
:1000400000000000A50B0008A50B0008A50B000888
:10005000A50B0008A50B0008A50B0008A50B0008C0
:10006000A50B0008A50B0008A50B0008A50B0008B0
:10007000A50B0008A50B0008A50B0008A50B0008A0
:10008000A50B0008A50B0008A50B00080000000048
:10009000000000000000000000000000A50B0008A8
:1000A000A50B0008A50B0008A50B0008A50B000870
:1000B000A50B0008A50B0008A50B0008A50B000860
:1000C000A50B0008A50B0008A50B0008A50B000850
:1000D000A50B000809080008A50B00080000000097
:1000E000A50B0008A50B0008A50B000800000000E8
:1000F000000000000000000000000000A50B000848
:1001000000000000A50B0008A50B0008A50B0008C7
:1001100000000000000000000000000000000000DF
:10012000A50B0008A50B0008A50B0008A50B0008EF
:10013000A50B000800000000000000000000000007
:10014000000000000000000000000000A50B0008F7
:10015000A50B0008A50B0008A50B0008A50B0008BF
:10016000A50B0008A50B000800000000000000001F
:10017000000000000000000000000000000000007F
:10018000000000000000000000000000000000006F
:04019000A50B0008B3
:1001940010B5054C237833B9044B13B10448AFF3BD
:1001A40000800123237010BD000000200000000027
:1001B400000C000808B5034B1BB103490348AFF317
:1001C400008008BD0000000004000020000C0008AE
:1001D40080B483B000AF0346FB710B46BB7113467A
:1001E4007B717B79002B52D1FB79022B37D0022B08
:1001F40000F35581002B02D0012B18D04FE1984B0E
:100204001B68BA795200032101FA02F2D243114663
:10021400934A0B401360924B1B687979BA79520068
:1002240001FA02F211468E4A0B43136037E18D4BFB
:100234001B68BA795200032101FA02F2D243114633
:10024400884A0B401360874B1B687979BA7952004E
:1002540001FA02F21146834A0B4313601FE1824BF9
:100264001B68BA795200032101FA02F2D243114603
:100274007D4A0B4013607C4B1B687979BA79520034
:1002840001FA02F21146784A0B43136007E17B79C5
:10029400012B52D1FB79022B37D0022B00F3FF80C4
:1002A400002B02D0012B18D0F9E06D4B1B68BA79F2
:1002B4005200032101FA02F2D2431146684A0B406C
:1002C4001360674B1B687979BA79520001FA02F21C
:1002D4001146634A0B431360E1E0624B1B68BA7931
:1002E4005200032101FA02F2D24311465D4A0B4047
:1002F40013605C4B1B687979BA79520001FA02F2F7
:100304001146584A0B431360C9E0574B1B68BA792E
:100314005200032101FA02F2D2431146524A0B4021
:100324001360514B1B687979BA79520001FA02F2D1
:1003340011464D4A0B431360B1E07B79022B52D135
:10034400FB79022B37D0022B00F3A980002B02D0BB
:10035400012B18D0A3E0424B1B68BA795200032149
:1003640001FA02F2D24311463D4A0B4013603C4B62
:100374001B687979BA79520001FA02F21146384AB7
:100384000B4313608BE0374B1B68BA79520003218F
:1003940001FA02F2D2431146324A0B401360314B48
:1003A4001B687979BA79520001FA02F211462D4A92
:1003B4000B43136073E02C4B1B68BA795200032182
:1003C40001FA02F2D2431146274A0B401360264B2E
:1003D4001B687979BA79520001FA02F21146224A6D
:1003E4000B4313605BE07B79032B57D1FB79022B22
:1003F4003CD0022B53DC002B02D0012B18D04EE052
:10040400174B1B68BA795200032101FA02F2D24356
:100414001146134A0B401360114B1B687979BA7962
:10042400520001FA02F211460D4A0B43136036E002
:100434000C4B1B68BA795200032101FA02F2D24331
:100444001146084A0B401360064B1B687979BA7948
:10045400520001FA02F21146024A0B4313601EE0F5
:100464000000024000040240000802400F4B1B68D9
:10047400BA795200032101FA02F2D24311460B4A1F
:100484000B401360094B1B687979BA79520001FA61
:1004940002F21146054A0B43136000E000BF00BF9F
:1004A4000C37BD465DF8047B704700BF000802406E
:1004B40080B483B000AF0346FB710B46BB71134697
:1004C4007B717B79012B2AD1FB79022B1CD0022B67
:1004D40057DC002B02D0012B0BD052E02C4B5B6875
:1004E400BA79012101FA02F21146294A0B435360F9
:1004F40047E0284B5B68BA79012101FA02F2114600
:10050400244A0B4353603CE0234B5B68BA790121D6
:1005140001FA02F21146204A0B43536031E07B7921
:10052400002B2DD1FB79022B1ED0022B29DC002BB2
:1005340002D0012B0CD024E0154B5B68BA79012161
:1005440001FA02F2D2431146114A0B40536018E0FB
:10055400104B5B68BA79012101FA02F2D2431146C9
:100564000C4A0B4053600CE00B4B5B68BA790121D9
:1005740001FA02F2D2431146074A0B40536000E0ED
:1005840000BF00BF0C37BD465DF8047B704700BF59
:1005940000000240000402400008024080B483B01E
:1005A40000AF0346FB710B46BB7113467B71BB79ED
:1005B400072B52D8FB79022B37D0022B00F3A680ED
:1005C400002B02D0012B18D0A0E0534B1B6ABA7940
:1005D40092000F2101FA02F2D24311464E4A0B4017
:1005E40013624D4B1B6A7979BA79920001FA02F2CF
:1005F4001146494A0B43136288E0484B1B6ABA7997
:1006040092000F2101FA02F2D2431146434A0B40F1
:100614001362424B1B6A7979BA79920001FA02F2A9
:1006240011463E4A0B43136270E03D4B1B6ABA7994
:1006340092000F2101FA02F2D2431146384A0B40CC
:100644001362374B1B6A7979BA79920001FA02F284
:100654001146334A0B43136258E0BB79072B54D934
:10066400FB79022B38D0022B50DC002B02D0012B5B
:1006740019D04BE0284B5B6ABA7992000F2101FA3A
:1006840002F2D2431146244A0B405362224B5B6A66
:100694007979BA79083A920001FA02F211461E4AAF
:1006A4000B43536232E01D4B5B6ABA7992000F210F
:1006B40001FA02F2D2431146184A0B405362174B17
:1006C4005B6A7979BA79083A920001FA02F2114622
:1006D400124A0B43536219E0114B5B6ABA799200D8
:1006E4000F2101FA02F2D24311460D4A0B40536224
:1006F4000B4B5B6A7979BA79083A920001FA02F2F3
:100704001146074A0B43536200E000BF00BF0C3799
:10071400BD465DF8047B70470000024000040240BF
:100724000008024080B483B000AF0346FB71084B5D
:100734001B6BFA79012101FA02F21146044A0B43B8
:10074400136300BF0C37BD465DF8047B704700BFE0
:100754000038024080B483B000AF0346FB71084BFD
:100764005B6CFA79012101FA02F21146044A0B4347
:10077400536400BF0C37BD465DF8047B704700BF6F
:100784000038024080B400AF00BFBD465DF8047B72
:100794007047000080B400AF194B40F283629A6046
:1007A400174AD3686FF3CF33D360154AD3686FF316
:1007B4000C33D360124AD3686FF38A23D360104B8F
:1007C4001B690F4A23F4805313610D4B1B690C4AB8
:1007D40023F4005313610A4AD36843F00803D36037
:1007E400074AD36843F00403D360054AD3686FF320
:1007F4004513D36000BFBD465DF8047B704700BF5E
:100804000010014080B500AF034B1B689847034BB1
:1008140000221A6000BF80BD1C00002000100140AF
:1008240080B485B000AF78600023FB7310E0FB7BDD
:100834007A6813441A780D4B5A6000BF0B4B1B683F
:10084400DB0903F00103002BF8D0FB7B0133FB73BE
:10085400FB7B7A6813441B78002BE8D100BF00BFF0
:100864001437BD465DF8047B704700BF001001409B
:1008740080B485B000AF78600023FB600023FB7276
:1008840009E0FB680133FB60FA687B689A4202D195
:100894008023FB7206E00D4B1B685B0903F0010328
:1008A400002BEED0FB7A002B02D1084B5B68FB7265
:1008B400064B1B68054A23F020031360FB7A184695
:1008C4001437BD465DF8047B704700BF001001403B
:1008D40080B59CB000AF7860002387F86F300023A8
:1008E40087F86E300023BB6007F10C0360220021FF
:1008F400184600F07BF910E07868FFF7B9FF03466B
:1009040087F86E3097F86F305A1C87F86F20703371
:100914003B4497F86E2003F8682C97F96E30002B4F
:10092400EADA002387F86F3097F86F30632B3FD8EB
:1009340097F86F3070333B4413F8683C4F2B0AD15F
:1009440097F86F30013370333B4413F8683C4B2BFA
:1009540001D101232CE097F86F3070333B4413F836
:10096400683C4E2B22D197F86F30013370333B44EF
:1009740013F8683C442B19D197F86F300333703364
:100984003B4413F8683C4F2B10D197F86F30043375
:1009940070333B4413F8683C4B2B07D197F86F3006
:1009A400103370333B4413F8683C01E00023FFE745
:1009B40018467037BD4680BD80B582B000AF0023B5
:1009C400FB7107E00E48FFF72BFF0E48FFF780FF8F
:1009D4000346FB71FB79002BF4D00023FB7107E085
:1009E4000948FFF71DFF0748FFF772FF0346FB7135
:1009F400FB79002BF4D000BF00BF0837BD4680BD93
:100A0400180C0008A0860100200C000880B582B0F4
:100A140000AF0023FB7107E00748FFF701FF074819
:100A2400FFF756FF0346FB71FB79002BF4D000BFA0
:100A340000BF0837BD4680BD300C0008A086010009
:100A440080B582B000AF0023FB7107E00748FFF7D1
:100A5400E7FE0748FFF73CFF0346FB71FB79002BD9
:100A6400F4D000BF00BF0837BD4680BD5C0C000851
:100A7400A086010080B582B000AFFFF7E1FF0B480C
:100A8400FFF7CEFE4CF25030FFF722FF0346FB7116
:100A94000748FFF7C5FE0748FFF71AFF0346FB7137
:100AA400FB7918460837BD4680BD00BF880C000896
:100AB400980C0008A086010080B582B000AF002029
:100AC400FFF730FE0420FFF745FEFFF75BFE02222E
:100AD40009210020FFF77CFB02220A210020FFF7F6
:100AE40077FB072209210020FFF758FD07220A217E
:100AF4000020FFF753FDFFF74DFE012201210020E6
:100B0400FFF766FB002201210020FFF7D1FC0A2237
:100B140001210020FFF7CCFCFFF74EFFFFF776FF23
:100B2400FFF78EFFFFF7A6FF0346FB71FB79312B1E
:100B340005D1012201210020FFF74AFB07E0FB79E0
:100B4400302B04D1002201210020FFF741FBFEE7F6
:100B54000D488546AFF300800C480D490D4A00232B
:100B640002E0D458C4500433C4188C42F9D30A4A5E
:100B74000A4C002301E013600432A242FBD300F0CC
:100B840011F8FFF799FFFEE7008001200000002024
:100B940000000020C80C00080000002020000020F5
:100BA400FEE7000070B50D4D0D4C641BA41000262B
:100BB400A64209D10B4D0C4C00F020F8641BA41084
:100BC4000026A64205D170BD55F8043B984701366E
:100BD400EEE755F8043B98470136F2E7C00C0008ED
:100BE400C00C0008C00C0008C40C000802440346F2
:100BF400934200D1704703F8011BF9E7F8B500BF31
:100C0400F8BC08BC9E467047F8B500BFF8BC08BCE9
:040C14009E46704741
:100C180041540D0A0000000041542B43574D4F44E6
:100C2800453D310D0A00000041542B43574A4150BD
:100C38005F4355523D22485541574549205939206F
:100C480032303139222C22313233313233343522A9
:100C58000D0A000041542B43495053544152543D0E
:100C680022544350222C223136322E3235332E3143
:100C780035352E323237222C38300D0A000000006C
:100C880041542B43495053454E443D34310D0A00DD
:100C980047455420687474703A2F2F696D746172D7
:100CA8006D67726F75702E3674652E6E65742F665B
:080CB800696C652E747874006C
:040CC000B90100086E
:040CC400950100088E
:0400000508000B558F
:00000001FF
